:020000040800F2
:100000003058002031410008450300080B9F0008CC
:10001000470300084B0300084F03000800000000DE
:100020000000000000000000000000004341000844
:100030005303000800000000939E0008C30200085C
:100040004B4100084B4100084B4100084B41000860
:100050004B4100084B410008FD0700080F0800084D
:100060002108000833080008450800084B41000833
:100070004B4100084B4100084B4100084B41000830
:100080004B4100084B4100084B4100084B41000820
:100090004B4100084B4100084B410008570800083D
:1000A0004B4100084B4100084B4100084B41000800
:1000B0004B4100084B4100084B4100084B410008F0
:1000C0004B4100084B4100084B4100084B410008E0
:1000D0004B4100088B0A00084B4100084B410008C7
:1000E000850800084B4100084B4100084B410008BF
:1000F0004B4100084B4100084B4100084B410008B0
:100100004B4100084B4100084B4100084B4100089F
:100110004B4100084B4100084B4100084B4100088F
:100120004B4100084B4100084B4100084B4100087F
:10013000DFF80CD00DF0DCFA0048004765420008FB
:10014000305800200020704710B50021032009F02E
:10015000C3FF002418E00121032009F0D0FF21464D
:100160000BA006F02CFE4FF4FA7009F0EDFA002116
:10017000032009F0C4FF0CA006F021FE4FF4FA7032
:1001800009F0E2FA601CC4B20A2CE4DB002010BDC6
:100190006C6564206F6E2C20636F756E74203A203E
:1001A00025640D0A000000006C6564206F66660D12
:1001B0000A00000008B5032002F060F800BF4D48B7
:1001C000806940F001004B4988610846806900F071
:1001D0000100009000BF00BF002211466FF00B002D
:1001E00002F05EF8002211466FF00A0002F058F8A3
:1001F000002211466FF0090002F052F80022114669
:10020000501F02F04DF800221146101F02F048F86E
:1002100000220F21901E02F043F800220F21501EF1
:1002200002F03EF800BF3448406820F0E0603249F8
:1002300048600846406840F00070486000BF08BD54
:1002400010B590B00120069000040790002008909F
:1002500001200A9002200D90C1030E914FF4E0118D
:100260000F9106A802F08EF920B13F22234924A065
:1002700006F0A8FE0F2001900220029000200390BB
:100280004FF48060049000200590022101A802F044
:10029000D5FB20B147221949254806F093FE02F00C
:1002A000CCFC6421B0FBF1F4204602F06FF804208E
:1002B00002F00CF900220F21501E01F0F1FF10B0E6
:1002C00010BD10B506F076F903F0B8FE03F051FF4B
:1002D00006F087F910BD10B503F08FFEFFF7B0FFF1
:1002E0001449154806F04CFF03F072FF13A006F006
:1002F000DBFD10BD001002400000014088D700085F
:1003000048414C5F5243435F4F7363436F6E66696E
:100310006728265243435F4F7363496E6974537471
:100320007275637429203D3D2048414C5F4F4B005E
:1003300048EA0008000001203058002075617274FE
:1003400031000000704700BFFEE700BFFEE700BFBE
:10035000FEE7704708B500BFFE48806940F0040022
:10036000FC4988610846806900F00400009000BFE5
:1003700000BF08BD08B500BFF648806940F008001E
:10038000F44988610846806900F00800009000BFC9
:1003900000BF08BD08B500BFEE48806940F01000FE
:1003A000EC4988610846806900F01000009000BFA9
:1003B00000BF08BD08B500BFE648806940F02000D6
:1003C000E44988610846806900F02000009000BF81
:1003D00000BF08BD08B500BFDE48806940F040009E
:1003E000DC4988610846806900F04000009000BF49
:1003F00000BF08BD08B500BFD648806940F0800046
:10040000D44988610846806900F08000009000BFF0
:1004100000BF08BD08B500BFCE48806940F48070B9
:10042000CC4988610846806900F48070009000BF64
:1004300000BF08BD0146912907D2C74A02EB01104F
:100440000268521C12B9002000E0002070472DE91C
:10045000F04107460D461646E8B2FFF7EBFF0446AB
:100460000CB9BDE8F081F2B2A38999B2A06800F09E
:100470003EFF00BFF5E72DE9F04107460D46002697
:10048000E8B2FFF7D7FF044614B93046BDE8F08163
:10049000A28991B2A06800F022FF06463046F5E737
:1004A0002DE9FF4107460E461446F0B2FFF7C2FFA2
:1004B00005460DB9BDE8FF8168688047E86800908F
:1004C00001200190002002900320039024B9012014
:1004D00001900020029019E0012C03D1002001902E
:1004E000029013E0022C04D1002001900120029020
:1004F0000CE0032C04D1002001900220029005E0C2
:10050000042C03D111200190002002906946A868B4
:1005100000F0BEFC00BFCDE70246002106E001204E
:100520008840904201D108467047491C2029F6DBDB
:100530004FF0FF30F8E72DE9F05F83460D46164691
:100540001F46DDF828804FF0FF34E8B2FFF772FF56
:100550008146B9F1000F02D10620BDE8F09FD9F81D
:100560000C00FFF7D9FF0446002C01DB102C01D34F
:100570000620F2E709F076FC824604EB4400774956
:1005800031F92000A84219D104EB440001EB8000AE
:100590004068B84212D104EB440001EB800040886F
:1005A000B0420BD104EB440001EB80008068404571
:1005B00004D1504609F05AFC0020CEE704EB440079
:1005C000664931F92000401C20B1504609F04EFC2C
:1005D0000720C2E728B204EB4401604A22F8210058
:1005E00004EB4400114601EB8000476004EB44013A
:1005F00002EB81014E8004EB4400114601EB8000C8
:10060000C0F80880504609F031FC0020A5E72DE92C
:10061000F04180460D464FF0FF34E8B2FFF70AFF85
:10062000064616B90620BDE8F081F068FFF774FFB2
:100630000446002C01DB102C01D30620F3E709F05F
:1006400011FC074604EB4400444931F92000401CEA
:1006500020B9384609F00AFC0020E4E74FF0FF30EB
:1006600004EB44013D4A22F82100002004EB440140
:1006700002EB8101486004EB440102EB81014880F8
:1006800004EB440102EB81018860384609F0EEFB7F
:100690000020C8E72DE9FF5F894617464FF0FF3677
:1006A00009F0FF00FFF7C6FE04461CB9062004B09F
:1006B000BDE8F09F012F5ED1E068FFF72DFF0646F1
:1006C000002E01DB102E01D30620F0E709F0CAFB53
:1006D000834606EB4600214931F92000401C20B931
:1006E000584609F0C3FB0620E1E71D4800EB8605EC
:1006F00060688047E06800900320039006EB4600A6
:10070000164901EB8000408820B1012807D002285B
:100710000FD109E0134801900220029009E012482D
:1007200001900120029004E0104801900020029006
:1007300000BF00BF6946A06800F0AAFB95F902005F
:100740000022052101F0ACFD95F9020001F0E6FD63
:1007500058460DE0001002409CD700080000002021
:10076000ACE0000800001110000021100000311062
:1007700009F07CFB1CE0CFB9D4F80CA05046FFF781
:10078000CBFE8046B8F1000F02DBB8F1100F01D3A9
:10079000002002E04A4800EB880005460DB906201B
:1007A00085E795F9020001F0C6FD01E006207EE72D
:1007B00000207CE710B50022424943A009F022FC4A
:1007C0000446204610BD70B505462846FFF7A4FE36
:1007D000044604EB44003D4901EB8000406858B1F9
:1007E00004EB44020B4603EB8202906804EB4402E4
:1007F00003EB82025168884700BF70BD10B505F059
:10080000D9FE012000F095FD05F0EBFE10BD10B5FE
:1008100005F0D0FE022000F08CFD05F0E2FE10BDD8
:1008200010B505F0C7FE042000F083FD05F0D9FEE9
:1008300010BD10B505F0BEFE082000F07AFD05F0F1
:10084000D0FE10BD10B505F0B5FE102000F071FD12
:1008500005F0C7FE10BD10B505F0ACFE202000F07D
:1008600068FD402000F065FD802000F062FD4FF43F
:10087000807000F05EFD4FF4007000F05AFD05F04E
:10088000B0FE10BD10B505F095FE4FF4806000F08D
:1008900050FD4FF4006000F04CFD4FF4805000F02C
:1008A00048FD4FF4005000F044FD4FF4804000F04C
:1008B00040FD4FF4004000F03CFD05F092FE10BDFD
:1008C000ACE00008ECE0000870696E000000002059
:1008D00070B506460D4626B92422FA49FAA006F05C
:1008E00071FB25B92522F749FCA006F06BFBF46BE0
:1008F000286860600021A1610C2161610021E16133
:10090000287900F00F00082802D0092807D102E05A
:100910000021A16006E04FF48051A16002E00021B7
:10092000A16000BF00BF2879C0F3011010B10128F9
:1009300007D102E00021E16006E04FF40051E160E0
:1009400002E00021E16000BF00BF2879C0F3811000
:1009500020B1012805D002280BD106E00021216139
:100960000AE04FF4C061216106E04FF4806121612B
:1009700002E00021216100BF00BF204602F006FB1B
:1009800008B1012070BD0020FCE72DE9F0410546CB
:100990000E46174625B95C22D449CBA006F012FBBF
:1009A000EC6B102E13D0112E25D194F9400000F0DD
:1009B0001F0201219140CE4A430942F8231000BF93
:1009C0002068C06820F020002168C86013E094F916
:1009D000400000F01F02012191404209920002F103
:1009E000E022C2F8001100BF2068C06840F020007B
:1009F0002168C86000BF00BF0020BDE8F08170B56D
:100A000004460E4624B97522BA49AFA006F0DAFAB8
:100A1000E56B00BF28680068C0F3C0100028F9D05B
:100A200028684660012070BD70B5044624B9802254
:100A3000B149A5A006F0C6FAE56B4FF0FF3628686D
:100A40000068C0F3401010B128684068C6B2304654
:100A500070BD70B50546EC6B24B99222A749A8A0D9
:100A600006F0B0FA20680068C0F3401060B120685A
:100A7000C06800F0200038B10121284609F036FD99
:100A80006FF020002168086070BD10B505F092FD80
:100A90009F48FFF7DEFF05F0A4FD10BD10B504462A
:100AA0004FF4E13060600021A160E16021610C2120
:100AB00061610021A161E161204602F067FA28B17D
:100AC00040F21512934994A006F07CFA10BD1CB5B3
:100AD0009A4903C9CDE90001994C4FF4E1300090E7
:100AE00098488B4908640846DDE90012C0E91112F4
:100AF0002046FFF7D3FF234640F2031292A1844819
:100B000009F0CCFC00201CBD10B586B0044690490D
:100B10002068884237D100BF8E48806940F4804009
:100B20008C4988610846806900F48040019000BFCC
:100B300000BF00BF0846806940F004008861084695
:100B4000806900F00400019000BF00BF48150290CA
:100B5000022003900320059002A97F4800F098F935
:100B60004FF48060029000200390049002A97A481C
:100B700000F08EF900220521252001F091FB2520AF
:100B800001F0CCFB75E075492068884236D100BF82
:100B90007048C06940F400306E49C8610846C069B9
:100BA00000F40030019000BF00BF00BF084680691C
:100BB00040F0040088610846806900F0040001905C
:100BC00000BF00BF04200290022003900320059084
:100BD00002A9614800F05CF908200290002003900F
:100BE000049002A95C4800F053F900220521262058
:100BF00001F056FB262001F091FB3AE058492068AD
:100C0000884236D100BF5348C06940F48020514922
:100C1000C8610846C06900F48020019000BF00BF91
:100C200000BF0846806940F0080088610846806976
:100C300000F00800019000BF00BF081502900220DC
:100C400003900320059002A9464800F021F94FF4D3
:100C50000060029000200390049002A9414800F037
:100C600017F900220521272001F01AFB272001F0A7
:100C700055FB06B010BD10B50446354920688842C2
:100C80000ED13448806920F48040324988614FF4A5
:100C9000C061314800F087FA252001F04CFB75E077
:100CA0002E49206888425FD12A48C06920F400306C
:100CB0002849C8610C21284800F075FA262001F067
:100CC0003AFB63E018E1000873657269616C2021EA
:100CD0003D2052545F4E554C4C0000006366672027
:100CE000213D2052545F4E554C4C000028E1000835
:100CF00080E100E036E1000841E100084CE1000835
:100D00007561727420213D2052545F4E554C4C0049
:100D1000FC02002060E1000848414C5F55415254FC
:100D20005F496E6974287561727448616E646C65A0
:100D300029203D3D2048414C5F4F4B0058E10008C1
:100D4000C000002004E100087561727431000000E9
:100D500000380140001002400008014000440040FB
:100D600000480040000C01400949206888420DD12C
:100D70000848C06920F480200649C8614FF44061EA
:100D8000054800F010FA272001F0D5FA10BD000048
:100D90000048004000100240000C01403448006848
:100DA00040F0010032490860084640683149084077
:100DB0002F494860084600682F4908402C490860C0
:100DC0000846006820F4802008600846406820F447
:100DD000FE0048604FF41F008860C8032749086080
:100DE000704710B5002100200022214B5B6803F002
:100DF0000C0121B1042906D0082928D107E0204B95
:100E0000204C236027E01E4B1E4C236023E0184B30
:100E10005B6803F47010164B5B6803F480320223A6
:100E200003EB904022B9184B4343164C23600DE06E
:100E30000F4B5B6803F4003323B1134B4343114C56
:100E4000236003E00E4B43430E4C236003E00C4B46
:100E50000C4C236000BF00BF054B5B68C3F303135A
:100E60000A4CE15C074B1B68CB40064C236010BD6D
:100E7000001002400000FFF8FFFFF6FE08ED00E062
:100E800000127A000401002000093D0073E100080F
:100E90002DE9F8470246002400200025844600275B
:100EA00000237BE14FF0010808FA03F4D1F8008039
:100EB00008EA0400A0427DD1DFF894A4D1F80480B0
:100EC000A8EB0A09D0453AD014DCB8F1030F50D092
:100ED00009DCB8F1000F31D0B8F1010F1CD0B8F126
:100EE000020F49D120E0B8F1110F18D0B8F1120F5C
:100EF00042D11EE0B9F5881F25D006DCB9F5803F48
:100F000020D0B9F5801F37D11AE0B9F5001F18D0ED
:100F1000B9F5041F30D117E0D1F80CC02DE0D1F89D
:100F20000C8008F1040C28E0D1F80C8008F1080CC2
:100F300023E0D1F80C8008F10C0C1EE000BF00BFCC
:100F400000BF00BF00BF00BFD1F80880B8F1000F9C
:100F500002D14FF0040C0BE0D1F80880B8F1010F7A
:100F600003D14FF0080C146102E04FF0080C5461FB
:100F700003E04FF0000C00E000BF00BFFF2801D8E5
:100F8000904601E002F104084646FF2802D84FEAE5
:100F9000830803E0A3F108084FEA88084746D6F81B
:100FA00000804FF00F0909FA07F928EA09080CFA3E
:100FB00007F900E07AE048EA0908C6F80080D1F8AD
:100FC000048008F08058B8F1805F6FD100BFDFF86F
:100FD0008483D8F8188048F00108DFF87893C9F8BE
:100FE0001880C846D8F8188008F00108CDF80080AD
:100FF00000BF00BF4FEAB9384FEA930958F82950AB
:101000004FEA83784FEA18794FF00F0808FA09F889
:1010100025EA0805DFF84083424502D14FF0000879
:1010200024E0DFF83883424502D14FF001081DE08B
:10103000DFF82C83424502D14FF0020816E0DFF8BA
:101040002483424502D14FF003080FE0DFF81883F4
:10105000424502D14FF0040808E0DFF81083424512
:1010600002D14FF0050801E04FF006084FEA8379FE
:101070004FEA197908FA09F848EA0505DFF8F0821D
:101080004FEA930948F82950D1F8048008F48038D1
:10109000B8F5803F0BD1DFF8DC82D8F8008048EA51
:1010A0000008DFF8D092C9F800800AE075E0DFF8A8
:1010B000C482D8F8008028EA0008DFF8B892C9F89E
:1010C0000080D1F8048008F40038B8F5003F0ED154
:1010D000DFF8A08208F10408D8F8008048EA000888
:1010E000DFF8909209F10409C9F800800DE0DFF8FB
:1010F000848208F10408D8F8008028EA0008DFF8A4
:10110000749209F10409C9F80080D1F8048008F448
:101110008018B8F5801F0ED1DFF8588208F1080852
:10112000D8F8008048EA0008DFF8489209F1080979
:10113000C9F800800DE0DFF83C8208F10808D8F813
:10114000008028EA0008DFF82C9209F10809C9F8A4
:101150000080D1F8048008F40018B8F5001F0ED103
:10116000DFF8108208F10C08D8F8008048EA00087F
:10117000DFF8009209F10C09C9F800800DE0DFF8F2
:10118000F48108F10C08D8F8008028EA0008DFF89C
:10119000E49109F10C09C9F800805B1C102BFFF4E5
:1011A00081AEBDE8F8872DE9F04102460B460020EC
:1011B0000021002400268BE00127874007EA030175
:1011C00000297DD0FF2901D8174600E0171D3D46B4
:1011D000FF2901D8870002E0A0F10807BF003E46C2
:1011E0002F684FF00F0C0CFA06FC27EA0C074FF0A3
:1011F000040C0CFA06FC47EA0C072F60D7688F43F3
:10120000D7605B4F4FEA900C57F82C4087074FEAA6
:10121000177C0F2707FA0CF73C404F4FBA4201D119
:10122000002719E04D4FBA4201D1012714E04C4F7D
:10123000BA4201D102270FE04A4FBA4201D1032737
:101240000AE0494FBA4201D1042705E0474FBA42AC
:1012500001D1052700E006274FEA807C4FEA1C7C7D
:1012600007FA0CF7A74232D187074FEA177C0F27FE
:1012700007FA0CF43E4F4FEA900C57F82C70A74336
:10128000DFF8ECC04FEA90084CF82870394F3F68FF
:101290008F43DFF8E0C0CCF800700CF104073F6822
:1012A0008F430CF1040CCCF800700CF104073F687C
:1012B0008F430CF1040CCCF800700CF1040700E033
:1012C00005E03F688F430CF1040CCCF80070401C23
:1012D00023FA00F7002F7FF46FAFBDE8F0810246DC
:1012E00093680B400BB1012000E0002070470AB169
:1012F000016101E00B0403617047C2684A40C260AB
:10130000704708B502464FF48030009000980843BB
:1013100000900098906191610098906190690090B0
:10132000906900F4803008B1002008BD0120FCE77E
:10133000704710B504460F4814300068204028B1AB
:101340000C48143004602046FFF73DFA10BD000041
:10135000000011100010024000080140000C014084
:10136000001001400014014000180140001C014021
:1013700008000140000401400146002209B9012093
:101380007047F74B086898420BD2F64B0868C01AB2
:101390001423B0FBF3F080000864F2480838C863F7
:1013A0000AE0EF4B0868C01A1423B0FBF3F080008A
:1013B0000864EB480838C863022081F821000868F7
:1013C000026843F6F0708243D1E901031843CB6809
:1013D00018430B6918434B6918438B691843CB6951
:1013E000184302430868026000208862C8620863EC
:1013F00048638863012081F82100002081F82000E3
:1014000000BFBDE7014609B90120704708680068C0
:1014100020F001000A68106000200A6810600A6865
:1014200050600A6890600A68D060CD4A08689042AF
:101430000BD2CC4A0868801A1422B0FBF2F080006C
:101440000864C8480838C8630AE0C54A0868801AB2
:101450001422B0FBF2F080000864C1480838C86369
:1014600091F8402001209040CA6B506000208863B2
:1014700081F8210000BF81F8200000BF00BFC4E751
:1014800030B590F840500124AC40C56B6C600468E6
:1014900063604468102C04D10468A2600468E160B1
:1014A00003E00468A1600468E26030BD2DE9F0410A
:1014B00004460D4616461F464FF0000800BF94F83C
:1014C0002000012802D10220BDE8F081012084F82B
:1014D000200000BF94F82100012817D1022084F8D1
:1014E00021000020A0632068006820F0010021682E
:1014F00008603B46324629462046FFF7C1FF206878
:10150000006840F001002168086006E000BF00208C
:1015100084F8200000BF4FF002084046D4E72DE9D0
:10152000F04104460D4616461F464FF0000800BF26
:1015300094F82000012802D10220BDE8F0810120AA
:1015400084F8200000BF94F8210001282CD102204B
:1015500084F821000020A0632068006820F00100CA
:10156000216808603B46324629462046FFF788FF3F
:10157000E06A30B12068006840F00E002168086021
:101580000BE02068006820F00400216808602068F3
:10159000006840F00A00216808602068006840F098
:1015A00001002168086006E000BF002084F82000E8
:1015B00000BF4FF002084046BFE7014600200A681E
:1015C000126822F00E020B681A600A68126822F094
:1015D00001020B681A6091F8403001229A40CB6BEF
:1015E0005A60012281F8212000BF002281F82020CA
:1015F00000BF704770B50446002594F8210002280A
:1016000003D00420A0630125C5E02068006820F015
:101610000E00216808602068006820F00100216841
:101620000860504978312068884252D94D49206875
:10163000884201D1012048E04A491431206888429B
:1016400001D1102041E0474928312068884201D16A
:1016500080153AE043493C312068884201D180142A
:1016600033E0404950312068884202D14FF4803045
:101670002BE03C4964312068884202D14FF480104D
:1016800023E0384978312068884201D140041CE0C9
:1016900033492068884201D1012016E030491431D5
:1016A0002068884201D110200FE02D4928312068A0
:1016B000884201D1801508E029493C3120688842E0
:1016C00001D1801401E04FF480302549091F0860E2
:1016D00054E024492068884201D101204CE021498E
:1016E00014312068884201D1102045E01D4928317D
:1016F0002068884201D180153EE01A493C312068BB
:10170000884201D1801437E0164950312068884260
:1017100002D14FF480302FE01249643120688842B2
:1017200002D14FF4801027E00E49783120688842BA
:1017300001D1400420E00A492068884201D10120FB
:101740001AE0074914312068884201D1102013E0C3
:10175000034928312068884206D180150CE000003A
:101760000804024008000240FA492068884201D17A
:10177000801401E04FF48030F7494860012084F87C
:10178000210000BF002084F8200000BF606B10B172
:101790002046616B8847284670BD2DE9F04104461C
:1017A0000E4615464FF0000894F82100022809D093
:1017B0000420A06300BF002084F8200000BF0120A7
:1017C000BDE8F0812068006800F0200020B14FF4EF
:1017D0008070A0630120F3E7002E53D1DE49083169
:1017E0002068884201D102204AE0DB491C31206890
:1017F000884201D1202043E0D74930312068884217
:1018000001D140153CE0D44944312068884202D1DE
:101810004FF4005034E0D04958312068884202D15A
:101820004FF400302CE0CC496C312068884202D162
:101830004FF4001024E0C84980312068884201D16B
:1018400080041DE0C3493C392068884201D1022050
:1018500016E0C04928392068884201D120200FE0D5
:10186000BC4914392068884201D1401508E0B949C3
:101870002068884202D14FF4005001E04FF400305C
:10188000074652E0B44908312068884201D104205B
:101890004AE0B1491C312068884201D1402043E030
:1018A000AD4930312068884201D100153CE0AA4999
:1018B00044312068884202D14FF4804034E0A64988
:1018C00058312068884202D14FF480202CE0A24990
:1018D0006C312068884202D14FF4800024E09E4998
:1018E00080312068884201D1C0041DE099493C390B
:1018F0002068884201D1042016E0964928392068E2
:10190000884201D140200FE0924914392068884272
:1019100001D1001508E08F492068884202D14FF4B8
:10192000804001E04FF48020074602F08DFB8046A6
:10193000DCE0894980312068884256D9854844389E
:101940000068854A08322168914201D108214AE0A5
:10195000814A1C322168914201D1802143E07E4AB4
:1019600030322168914201D1C9143CE07A4A4432B4
:101970002168914202D14FF4004134E0764A583256
:101980002168914202D14FF400212CE0724A6C325E
:101990002168914202D14FF4000124E06E4A803266
:1019A0002168914201D109051DE06A4A3C3A21684B
:1019B000914201D1082116E0664A283A21689142F5
:1019C00001D180210FE0634A143A2168914201D18C
:1019D000C91408E05F4A2168914202D14FF40041E6
:1019E00001E04FF40021084054E05B4800685A4A87
:1019F00008322168914201D108214AE0564A1C323E
:101A00002168914201D1802143E0534A303221685C
:101A1000914201D1C9143CE04F4A443221689142BD
:101A200002D14FF4004134E04B4A583221689142D0
:101A300002D14FF400212CE0474A6C3221689142D8
:101A400002D14FF4000124E0434A803221689142E0
:101A500001D109051DE03F4A3C3A2168914201D17C
:101A6000082116E03B4A283A2168914201D18021A1
:101A70000FE0384A143A2168914201D1C91408E0B4
:101A8000344A2168914202D14FF4004101E04FF401
:101A90000021084098B194F8401001208840E16B83
:101AA0004860A06B40F00100A063012084F8210091
:101AB00000BF002084F8200000BF012080E6681CE1
:101AC000A0B12DB102F0C0FAA0EB0800A8420DD9D8
:101AD000A06B40F02000A063012084F8210000BF2B
:101AE000002084F8200000BF012069E61A498031F7
:101AF0002068884204D9174844380068384002E01A
:101B000015480068384000283FF413AF002E72D10A
:101B1000114980312068884258D90F49083120681E
:101B2000884201D102204DE00B491C3120688842D7
:101B300001D1202046E0084930312068884201D197
:101B400040153FE0044944312068884206D14FF4F3
:101B5000005037E04404024000000240F74920688A
:101B6000884202D14FF400302CE0F449143120684F
:101B7000884202D14FF4001024E0F0492831206857
:101B8000884201D180041DE0ED492068884201D1DE
:101B9000022017E0EA4914312068884201D1202050
:101BA00010E0E74928312068884201D1401509E05A
:101BB000E3493C312068884202D14FF4005001E0F3
:101BC0004FF40030DE49091F086054E0DB4950390A
:101BD0002068884201D102204AE0D8493C39206877
:101BE000884201D1202043E0D44928392068884226
:101BF00002D140153CE042E0D049143920688842C7
:101C000002D14FF4005033E0CC492068884202D121
:101C10004FF400302CE0C94914312068884202D1C9
:101C20004FF4001024E0C54928312068884201D1D2
:101C300080041DE0C2492068884201D1022017E0DB
:101C4000BF4914312068884201D1202010E0BC49EE
:101C500028312068884201D1401509E0B8493C315B
:101C60002068884202D14FF4005001E04FF4003068
:101C7000B24958394860012084F82100ADE0AF49ED
:101C800028312068884254D9AC49503920688842AC
:101C900001D1042049E0A9493C392068884201D19A
:101CA000402042E0A54928392068884201D100152A
:101CB0003BE0A24914392068884202D14FF48040A9
:101CC00033E09E492068884202D14FF480202CE006
:101CD0009A4914312068884202D14FF4800024E0F0
:101CE000964928312068884201D1C0041DE09449FA
:101CF0002068884201D1042017E0914914312068FE
:101D0000884201D1402010E08D4928312068884266
:101D100001D1001509E08A493C312068884202D18E
:101D20004FF4804001E04FF480208549091F08608E
:101D300053E0824950392068884201D1042049E0AB
:101D40007E493C392068884201D1402042E07B49ED
:101D500028392068884201D100153BE077491439C1
:101D60002068884202D14FF4804033E073492068F4
:101D7000884202D14FF480202CE070491431206851
:101D8000884202D14FF4800024E06C492831206859
:101D9000884201D1C0041DE069492068884201D110
:101DA000042017E0664914312068884201D14020A0
:101DB00010E0634928312068884201D1001509E00C
:101DC0005F493C312068884202D14FF4804001E0F5
:101DD0004FF4802059495839486000BF002084F8EA
:101DE000200000BF00BFEBE470B50446E06B05685F
:101DF0002068066894F84010042088402840002895
:101E00006FD006F004000028FAD02068006800F0C7
:101E1000200028B92068006820F0040021680860CC
:101E2000464928312068884254D9444950392068AD
:101E3000884201D1042049E040493C392068884269
:101E400001D1402042E03D4928392068884201D133
:101E500000153BE0394914392068884202D14FF41B
:101E6000804033E035492068884202D14FF4802019
:101E70002CE0324914312068884202D14FF48000AE
:101E800024E02E4928312068884201D1C0041DE099
:101E90002B492068884201D1042017E028491431D9
:101EA0002068884201D1402010E02549283120686F
:101EB000884201D1001509E021493C31206888425F
:101EC00002D14FF4804001E04FF480201C49091FEB
:101ED000086057E0194950392068884202D104202F
:101EE0004EE056E015493C392068884201D1402037
:101EF00046E0124928392068884201D100153FE0A8
:101F00000E4914392068884202D14FF4804037E0EE
:101F10000A492068884202D14FF4802030E0074906
:101F200014312068884202D14FF4800028E0034930
:101F300028312068884205D1C00421E058000240C1
:101F400008040240C3492068884201D1042017E0F8
:101F5000C04914312068884201D1402010E0BD49B9
:101F600028312068884201D1001509E0B9493C3187
:101F70002068884202D14FF4804001E04FF4802075
:101F8000B5494860E06A002802D02046E16A8847E7
:101F9000F6E094F84010022088402840002873D0D2
:101FA00006F002000028FAD02068006800F0200047
:101FB00040B92068006820F00A002168086001200C
:101FC00084F82100A44980312068884255D9A2496B
:101FD00008312068884201D102204AE09E491C3124
:101FE0002068884201D1202043E09B49303120689D
:101FF000884201D140153CE097494431206888422D
:1020000002D14FF4005034E093495831206888429F
:1020100002D14FF400302CE08F496C3120688842A7
:1020200002D14FF4001024E08B49803120688842AF
:1020300001D180041DE087492068884201D1022037
:1020400017E0844914312068884201D1202010E033
:10205000804928312068884201D1401509E07D4936
:102060003C312068884202D14FF4005001E04FF427
:1020700000307849091F086054E07749083120682A
:10208000884202D102204BE057E073491C3120689E
:10209000884201D1202043E06F49303120688842D6
:1020A00001D140153CE06C4944312068884202D19E
:1020B0004FF4005034E0684958312068884202D11A
:1020C0004FF400302CE064496C312068884202D122
:1020D0004FF4001024E0604980312068884201D12B
:1020E00080041DE05B492068884201D1022017E08E
:1020F000584914312068884201D1202010E0554908
:1021000028312068884201D1401509E051493C310D
:102110002068884202D14FF4005001E04FF40030B3
:102120004D49486000BF002084F8200000BFA06A2D
:1021300030B32046A16A884722E094F84010082076
:1021400088402840E0B106F00800C8B12068006867
:1021500020F00E002168086094F8401001208840AB
:10216000E16B48600120A06384F8210000BF0020DB
:1021700084F8200000BF206B10B12046216B8847F7
:1021800070BD10B50346002400BF93F8200001285D
:1021900001D1022010BD012083F8200000BF93F878
:1021A0002100012812D131B1012906D0022906D01F
:1021B000032908D105E09A6207E0DA6205E01A63B4
:1021C00003E05A6301E0012400BF00E0012400BFE6
:1021D000002083F8200000BF2046DBE702460023F2
:1021E00000BF92F82000012801D102207047012091
:1021F00082F8200000BF92F8210001281BD1052998
:1022000016D2DFE801F00306090C0F0000209062EF
:1022100010E00020D0620DE0002010630AE00020F2
:10222000506307E000209062D0621063506301E0C9
:10223000012300BF00E0012300BF002082F820003E
:1022400000BF1846D2E7014691F8210070470146C9
:10225000886B7047080402400000024010B5002857
:1022600007DA0A07140EA94A00F00F031B1FD45403
:1022700003E00A07130EA64A135410BD00BF00F076
:102280000702A24B0C3B19684FF6FF031940A14B04
:102290000B4343EA02219D4B0C3B196000BF704782
:1022A0002DE9F05F80460D461646002700F027F91D
:1022B000074639462A46334601F00700C0F1070AAF
:1022C000BAF1040F02D94FF0040A01E0C0F1070A85
:1022D000D14600F1040ABAF1070F02D24FF0000A0A
:1022E00001E0A0F1030AD4464FF0010A0AFA09FA04
:1022F000AAF1010A0AEA020A0AFA0CFA4FF0010BE3
:102300000BFA0CFBABF1010B0BEA030B4AEA0B04D3
:1023100021464046FFF7A2FFBDE8F09F00BF00F056
:102320001F02012191404209920002F1E022C2F80D
:10233000001100BF704700BF00F01F020121914053
:10234000754A430942F8231000BF704700BF00BF21
:1023500000BF00BF00BFBFF34F8F00BF00BF00BF73
:102360006A480C38006800F4E0606A490843001DC0
:1023700066490C39086000BF00BF00BFBFF34F8F34
:1023800000BF00BF00BF00BF00BFFDE770B504463F
:102390002546681EB0F1807F01D301200FE0681E42
:1023A0004FF0E02148610F214FF0FF30FFF756FF5B
:1023B00000204FF0E021886107200861002070BDF7
:1023C00010B500F09CF810BD2DE9F04304462046FE
:1023D000002808DA4D4F00F00F0CACF1040C17F890
:1023E0000C703F0902E04A4F3F5C3F093D460E46F4
:1023F00006F00700C0F10708B8F1040F02D94FF04A
:10240000040801E0C0F10708C44600F10408B8F16F
:10241000070F02D24FF0000801E0A0F10308474681
:1024200025FA07F84FF0010909FA0CF9A9F1010999
:1024300008EA0908C2F800804FF0010808FA07F816
:10244000A8F1010808EA0508C3F8008000BFBDE84C
:10245000F08300BF00F01F02012191402E4A80321C
:10246000430942F8231000BF704710B501460846E3
:10247000294A8032430952F8232000F01F04012327
:10248000A3401A400AB1012200E00022104610BD0C
:1024900000BF00F01F0201219140204A430942F889
:1024A000231000BF704710B5014608461B4A803212
:1024B000430952F8232000F01F040123A3401A40CF
:1024C0000AB1012200E00022104610BD042808D104
:1024D0004FF0E021096941F004014FF0E022116161
:1024E00007E04FF0E021096921F004014FF0E022FC
:1024F00011617047704710B5FFF7FCFF10BD03482E
:102500000C380068C0F302207047000018ED00E0AE
:1025100000E400E00000FA0580E100E080E200E075
:10252000F848406820F00300F64948600846006813
:10253000F5490840F34908600846006820F4802007
:102540000860002048600846006820F0F80040F06D
:102550008000086000208860EC48ED490860704702
:1025600008B5EB490968C9084FF47A72B1FBF2F17A
:102570004143009100BF00BF00994A1E009200290C
:10258000F9D108BDF8B504460025207800F0010017
:10259000002878D0DB48406800F00C0004280CD0FC
:1025A000D848406800F00C00082811D1D548406890
:1025B00000F48030B0F5803F0AD1D248006800F4C2
:1025C000003000285FD0606800285CD10120F8BD91
:1025D00000BF6068B0F5803F06D1CA48006840F48B
:1025E0008030C849086028E0606858B9C54800686C
:1025F00020F48030C34908600846006820F4802039
:1026000008601AE06068B0F5A02F0BD1BD480068E3
:1026100040F48020BB4908600846006840F48030E0
:1026200008600AE0B748006820F48030B5490860C7
:102630000846006820F48020086000BF606888B108
:1026400001F002FD054606E001F0FEFC401B642897
:1026500001D90320BBE7AB48006800F40030002834
:10266000F2D010E001F0F0FC054606E001F0ECFCD1
:10267000401B642801D90320A9E7A248006800F4A0
:1026800000300028F2D1207800F00200022857D153
:102690009C48406800F00C0050B19A48406800F037
:1026A0000C00082818D19748406800F4803098B989
:1026B0009448006800F0020020B12069012801D090
:1026C000012084E78F48006820F0F800616940EA43
:1026D000C1008C49086033E02069E8B101208D49D0
:1026E000086001F0B1FC054606E001F0ADFC401BBE
:1026F000022801D903206AE78248006800F002003E
:102700000028F2D07F48006820F0F800616940EAB4
:10271000C1007C49086013E000207E49086001F098
:1027200093FC054606E001F08FFC401B022801D90E
:1027300003204CE77348006800F002000028F2D143
:10274000207800F0080008282DD1A069B8B1012038
:102750007149086001F078FC054606E001F074FC60
:10276000401B022801D9032031E76648406A00F087
:1027700002000028F2D00120FFF7F2FE13E0002053
:102780006549086001F060FC054606E001F05CFC6C
:10279000401B022801D9032019E75A48406A00F07B
:1027A00002000028F2D1207800F00400042873D140
:1027B00000265448C06900F0805070B900BF5148ED
:1027C000C06940F080504F49C8610846C06900F0B8
:1027D0008050009000BF00BF01265048006800F400
:1027E0008070B0B94D48006840F480704B49086073
:1027F00001F02AFC054606E001F026FC401B642897
:1028000001D90320E3E64548006800F48070002801
:10281000F2D000BFE068012806D13A48006A40F0D3
:1028200001003849086227E0E06858B93548006A75
:1028300020F00100334908620846006A20F00400D5
:10284000086219E0E06805280BD12E48006A40F0C4
:1028500004002C4908620846006A40F00100086242
:102860000AE02848006A20F001002649086208466C
:10287000006A20F00400086200BFE068A0B101F027
:10288000E3FB054609E001F0DFFB401B41F2883124
:10289000884202D903209AE622E01A48006A00F032
:1028A00002000028EFD012E001F0CEFB054608E060
:1028B00001F0CAFB401B41F28831884201D9032054
:1028C00085E61048006A00F002000028F0D1012ED1
:1028D00005D10C48C06920F080500A49C86100BF8A
:1028E000E069E0B30748406800F00C00082866D0B3
:1028F000E06902284ED100200649086601F0A4FBD9
:10290000054614E000100240FFFFF6FE00127A00B8
:102910000401002000004242800442420070004056
:1029200001F092FB401B022801D903204FE6FA4830
:10293000006800F000700028F2D1206AB0F5803FF6
:1029400007D1F548406820F40030A1680843F249F7
:102950004860D4E908010843EF49496800E030E0E5
:1029600021F474110843EC4948600120EB490866E2
:1029700001F06AFB054606E001F066FB401B0228F9
:1029800001D9032023E6E448006800F00070002825
:10299000F2D016E00020E149086601F055FB05463B
:1029A00006E001F051FB401B022801D903200EE68E
:1029B000D948006800F000700028F2D101E0012041
:1029C00005E6002003E6F0B585B00FF2543C9CE824
:1029D000E01001A8A0E8E010D5A52D680095002121
:1029E0000024002200230020CB4D696801F00C0573
:1029F000FDB1042D02D0082D1AD101E0CD481AE016
:102A000001ADC1F38346AB5D01F480355DB1C24DCC
:102A10006D68C5F340451DF80540C64DB5FBF4F59E
:102A200005FB03F202E0C44D03FB05F2104602E091
:102A300000BFC04800BF00BF05B0F0BD70B5044680
:102A40000D460026BD48006800F00700A8420ED2DF
:102A5000BA48006820F007002843B84908600846D3
:102A6000006800F00700A84201D0012070BD207866
:102A700000F00200022807D1A748406820F0F000CB
:102A8000A1680843A4494860207800F001000028AC
:102A90005DD06068012806D19F48006800F40030CE
:102AA00090B90120E2E76068022806D19A480068E0
:102AB00000F0007040B90120D8E79748006800F0A6
:102AC000020008B90120D1E79348406820F00300D4
:102AD000616808439049486001F0B6FA06466068AC
:102AE000012810D108E001F0AFFA801B41F28831D3
:102AF000884201D90320B9E78748406800F00C00FC
:102B00000428F0D123E06068022810D108E001F029
:102B10009BFA801B41F28831884201D90320A5E746
:102B20007D48406800F00C000828F0D10FE008E074
:102B300001F08AFA801B41F28831884201D90320D2
:102B400094E77548406800F00C000028F0D17B48FD
:102B5000006800F00700A8420ED97848006820F00D
:102B600007002843754908600846006800F0070020
:102B7000A84201D0012079E7207800F00400042861
:102B800007D16548406820F4E060E1680843624985
:102B90004860207800F00800082808D15E484068A6
:102BA00020F46050216940EAC1005B494860FFF7AA
:102BB0000AFF59494968C1F30311614A515CC84091
:102BC000604908600F2001F006FA00204EE770B55A
:102BD00086B005460C4616460020029003900490ED
:102BE00005900220039003200590002004904FF4EC
:102BF0008070029000BF4848806940F00400464958
:102C000088610846806900F00400019000BF00BFA1
:102C100002A94D48FEF73CF93F48406820F0E060CB
:102C200020433D49486006B070BD01203B49C8645F
:102C3000704700203949C8647047424800687047AF
:102C400000B5FFF7FAFF34494968C1F302213F4A52
:102C5000515CC84000BD00B5FFF7EFFF2E49496841
:102C6000C1F3C221394A515CC84000BD0F21016047
:102C70002949096801F48021B1F5802F03D14FF46F
:102C8000A02141600CE02449096801F48031B1F5CC
:102C9000803F03D14FF48031416001E00021416069
:102CA0001D49496801F4003181601B49096801F040
:102CB000010111B10121016101E000210161164909
:102CC0000968C1F3C40141611349096A01F00401B3
:102CD000042902D10521C16009E00F49096A01F008
:102CE000010111B10121C16001E00021C1600A4967
:102CF000496A01F0010111B10121816101E0002166
:102D000081610549096801F08071B1F1807F1FD1AF
:102D10000221C1611EE0000000100240000042429A
:102D200002030405060708090A0B0C0D0E0F10100C
:102D30000102000000127A0000093D00002002405C
:102D400073E10008040100200008014083E100084D
:102D50000121C1611A49496801F4803202621849AF
:102D6000496801F47012426270470F220260144AEF
:102D7000526802F003024260114A526802F0F00207
:102D800082600F4A526802F4E062C2600C4A5268E4
:102D900002F46052D20802610A4A126802F0070285
:102DA0000A607047704710B50548806800F08000E1
:102DB000802804D1FFF7F6FF80200149887210BDFA
:102DC00000100240002002402DE9F0410446002599
:102DD0002068006920F44050E168084321680861D8
:102DE0002169A06808436169084305432068C068F9
:102DF00041F20C61884328432168C860206840691B
:102E000020F44070A169084321684861FE492068A8
:102E100088425CD1FFF71FFF00EBC00101EB0010FF
:102E200061688900B0FBF1F6FFF715FF00EBC00108
:102E300001EB001061688900B0FBF1F06421B0FB88
:102E4000F1F000EBC00101EB0010A6EB8000322195
:102E500001EB00106421B0FBF1F000F0F006FFF789
:102E6000FAFE00EBC00101EB001061688900B0FBC5
:102E7000F1F06421B0FBF1F006EB0016FFF7EBFE7A
:102E800000EBC00101EB001061688900B0FBF1F7B5
:102E9000FFF7E1FE00EBC00101EB00106168890063
:102EA000B0FBF1F06421B0FBF1F000EBC00101EBED
:102EB0000010A7EB8000322101EB00106421B0FB71
:102EC000F1F000F00F003044216888605BE0FFF70C
:102ED000B7FE00EBC00101EB001061688900B0FB98
:102EE000F1F6FFF7ADFE00EBC00101EB00106168E9
:102EF0008900B0FBF1F06421B0FBF1F000EBC00100
:102F000001EB0010A6EB8000322101EB00106421E0
:102F1000B0FBF1F000F0F006FFF792FE00EBC0010D
:102F200001EB001061688900B0FBF1F06421B0FB97
:102F3000F1F006EB0016FFF783FE00EBC00101EB9A
:102F4000001061688900B0FBF1F7FFF779FE00EB34
:102F5000C00101EB001061688900B0FBF1F0642151
:102F6000B0FBF1F000EBC00101EB0010A7EB80001B
:102F7000322101EB00106421B0FBF1F000F00F00F2
:102F8000304421688860BDE8F081704710B5044680
:102F90000CB9012010BDA06900B100E000BF94F899
:102FA000390028B9002084F838002046FDF7ACFD30
:102FB000242084F839002068C06820F4005021687B
:102FC000C8602046FFF700FF2068006920F49040A9
:102FD000216808612068406920F02A002168486162
:102FE0002068C06840F400502168C8600020E06399
:102FF000202084F8390084F83A000020CAE710B590
:1030000004460CB9012010BD94F8390028B90020FD
:1030100084F838002046FDF777FD242084F8390035
:103020002068C06820F400502168C8602046FFF77F
:10303000CBFE2068006920F4904021680861206878
:10304000406920F02200216848612068406940F012
:103050000800216848612068C06840F40050216879
:10306000C8600020E063202084F8390084F83A002A
:103070000020C8E770B504460D460CB9012070BDAC
:1030800094F8390028B9002084F838002046FDF76C
:103090003BFD242084F839002068C06820F40050EB
:1030A0002168C8602046FFF78FFE2068006920F481
:1030B0000060216808612068406920F02A002168CA
:1030C00048612068006940F48040216808612068F8
:1030D000006920F020002843216808612068C0684A
:1030E00040F400502168C8600020E063202084F88C
:1030F000390084F83A000020C1E770B504460D4657
:1031000016460CB9012070BD94F8390028B900208A
:1031100084F838002046FDF7F7FC242084F83900B5
:103120002068C06820F400502168C8602046FFF77E
:103130004BFE2068006920F49040216808612068F7
:10314000406920F02A00216848612068006920F069
:103150000F002843216808612068C06820F40060DF
:1031600030432168C8602068C06840F4005021687E
:10317000C8600020E063202084F8390084F83A0019
:103180000020C0E7704710B504460CB9012010BDFF
:10319000242084F839002046FDF76DFD0020E0630F
:1031A00084F8390084F83A0000BF84F8380000BF82
:1031B00000BFECE72DE9F04104460D46174698465E
:1031C000069E23E0701C08B32EB100F03DFFA0EB7B
:1031D0000800B0421AD92068C06820F4D070216875
:1031E000C8602068406920F0010021684861202003
:1031F00084F8390084F83A0000BF002084F83800D1
:1032000000BF0320BDE8F08100380140206800685D
:103210002840A84201D1012000E00020B842D1D0CE
:103220000020EFE72DE9F84304460D4616461F46F9
:103230004FF0000994F8390020285CD105B116B987
:103240000120BDE8F88300BF94F83800012801D1BF
:103250000220F6E7012084F8380000BF0020E06378
:10326000212084F8390000F0EFFE8146A684E68430
:103270002BE0E08C401EE084A068B0F5805F16D1A2
:103280004B460022802120460097FFF793FF08B1AC
:103290000320D6E7A846B8F80000C0F3080021686C
:1032A0004860206908B9AD1C0FE06D1C0DE04B466D
:1032B0000022802120460097FFF77CFF08B1032001
:1032C000BFE715F8010B21684860E08C0028D0D1D9
:1032D0004B460022402120460097FFF76BFF08B1C4
:1032E0000320AEE7202084F8390000BF002084F8D6
:1032F000380000BFA5E70220A3E72DE9F843044604
:103300000D4616461F464FF0000994F83A00202853
:1033100060D105B116B90120BDE8F88300BF94F86B
:103320003800012801D10220F6E7012084F8380096
:1033300000BF0020E063222084F83A0000F084FE01
:103340008146A685E68539E0E08D401EE085A068CF
:10335000B0F5805F1BD14B4600222021204600970C
:10336000FFF728FF08B10320D6E7A846206938B93F
:1033700020684068C0F30800A8F80000AD1C1DE0FC
:1033800020684068C0B2A8F800006D1C16E04B46EB
:103390000022202120460097FFF70CFF08B10320F0
:1033A000BAE7206920B92068406805F8010B05E0FC
:1033B0002068406800F07F0005F8010BE08D0028D0
:1033C000C2D1202084F83A0000BF002084F83800E1
:1033D00000BFA1E702209FE710B5034693F839002C
:1033E000202823D101B10AB9012010BD00BF93F8F4
:1033F0003800012801D10220F7E7012083F83800C6
:1034000000BF19629A84DA840020D863212083F8EF
:10341000390000BF002083F8380000BF1868C0687A
:1034200040F080001C68E0600020DEE70220DCE75E
:1034300010B5034693F83A0020282FD101B10AB9FC
:10344000012010BD00BF93F83800012801D10220EF
:10345000F7E7012083F8380000BF99629A85DA8582
:103460000020D863222083F83A0000BF002083F8B0
:10347000380000BF1868C06840F480701C68E060C5
:103480001868406940F001001C6860611868C068F5
:1034900040F020001C68E0600020D2E70220D0E766
:1034A00070470168C96821F490710268D1600168B1
:1034B000496921F0010102685161202180F83A1028
:1034C00070470168C96821F0C0010268D1602021FD
:1034D00080F83910704770B506460025746A206878
:1034E0004069C0F3C01594F83900212805D125B1F1
:1034F0000020E0842046FFF7E4FF20684069C0F325
:10350000801594F83A00222805D125B10020E085E5
:103510002046FFF7C6FFE06B40F01000E063204656
:10352000FFF7BEFF70BD704770B50446656A284658
:10353000FFF7F9FF70BD704770B505466C6A2868E3
:10354000006800F0200070B90020E0842068406925
:1035500020F08000216848612068C06840F0400089
:103560002168C86002E02046FFF7E5FF70BDF7B5AF
:103570000446154694F8390020283DD1019800B141
:103580000DB90120FEBD00BF94F83800012801D11B
:103590000220F7E7012084F8380000BF019820627C
:1035A000A584E5840020E063212084F83900FA48EE
:1035B000216B8862F948216BC862F948216B086366
:1035C0000020216B486301AE23681A1D31682B4629
:1035D000206BFDF7A4FF6FF040002168086000BF7A
:1035E000002084F8380000BF2068406940F0800067
:1035F000216848610020C5E70220C3E7704770B525
:103600000446656A2846FFF7F9FF70BD704770B53C
:1036100005466C6A2868006800F02000B0B90020F8
:10362000E0852068C06820F480702168C860206848
:10363000406920F00100216848612068406920F05D
:10364000400021684861202084F83A002046FFF7B6
:10365000DDFF70BD77B581B00446154694F83A0099
:10366000202850D1029800B115B9012004B070BDD6
:1036700000BF94F83800012801D10220F6E70120AC
:1036800084F8380000BF0298A062A5850020E0639E
:10369000222084F83A00C348616B8862C248616B9B
:1036A000C862BF48616B08630020616B486302AE6B
:1036B00032682368191D2B46606BFDF730FF00BF91
:1036C000002000902068006800902068406800900A
:1036D00000BF00BF00BF002084F8380000BF206892
:1036E000C06840F480702168C8602068406940F07C
:1036F0000100216848612068406940F0400021686D
:1037000048610020B2E70220B0E70146002200BF76
:1037100091F83800012801D102207047012081F87A
:10372000380000BF08684069C0F3C01291F8390042
:10373000212806D12AB10868406920F080000B6872
:10374000586108684069C0F3801291F83A00222855
:1037500012D18AB10868C06820F480700B68D86004
:103760000868406920F001000B68586108684069EA
:1037700020F040000B68586100BF002081F838003D
:1037800000BF00BFC9E708B5014600BF91F8380087
:10379000012801D1022008BD012081F8380000BFB6
:1037A00091F83900212805D10868406940F080006F
:1037B0000A68506191F83A0022281CD100BF00200D
:1037C000009008680068009008684068009000BF9A
:1037D00000BF0868C06840F480700A68D06008685C
:1037E000406940F001000A6850610868406940F093
:1037F00040000A68506100BF002081F8380000BF17
:1038000000BFC8E770B50446002520684069C0F3D2
:10381000C01594F8390021280ED16DB12068406997
:1038200020F0800021684861206B10B1206BFDF70B
:10383000C4FE2046FFF745FE20684069C0F38015AE
:1038400094F83A0022280ED16DB12068406920F02A
:10385000400021684861606B10B1606BFDF7ADFE00
:103860002046FFF71EFE002070BD10B504462068FC
:10387000C06820F4F0702168C8602068406920F0BA
:103880000100216848612068406900F0800068B14B
:103890002068406920F0800021684861206B28B1D1
:1038A0000020216B4863206BFDF787FE206840698C
:1038B00000F0400068B12068406920F040002168B5
:1038C0004861606B28B10020616B4863606BFDF755
:1038D00074FE0020E084E085E063202084F83A0054
:1038E00084F83900002010BD10B504462068C06877
:1038F00020F0C0002168C8602068406900F08000A6
:1039000068B12068406920F0800021684861206B20
:1039100028B10020216B4863206BFDF74EFE00208C
:10392000E084202084F83900002010BD10B5044642
:103930002068C06820F490702168C86020684069E1
:1039400020F00100216848612068406900F04000D3
:1039500068B12068406920F0400021684861606BD0
:1039600028B10020616B4863606BFDF726FE0020E4
:10397000E085202084F83A00002010BD704770B523
:1039800005466C6A0020616B4863206B70B1206B48
:10399000406B58B170BD000039350008293500086A
:1039A000D73400080F360008FF3500080020E084F7
:1039B000E085E063202084F8390084F83A0020464E
:1039C000FFF7DCFF00BFE5E770B505466C6A002035
:1039D000216B4863606B18B1606B406B00B170BDC8
:1039E0000020E084E085E063202084F8390084F83A
:1039F0003A002046FFF7C2FF00BFF0E770B504466B
:103A000001252068C06820F4F0702168C860206833
:103A1000406920F0010021684861206B58B120689E
:103A2000406900F0800018B1FB48216B486302E058
:103A30000020216B4863606B58B12068406900F03A
:103A4000400018B1F548616B486302E00020616BEB
:103A500048632068406900F0800080B120684069B8
:103A600020F0800021684861206B40B1206BFDF799
:103A7000C1FD18B10020216B486300E000252068DB
:103A8000406900F0400088B12068406920F04000A3
:103A900021684861606B48B1606BFDF7ABFD20B1F8
:103AA0000020616B4863012500E00025012D0BD14A
:103AB0000020E084E085E063202084F8390084F869
:103AC0003A002046FFF75AFF002070BD704770B5DE
:103AD00005466C6A0020E084202084F839002046E6
:103AE000FFF7F4FF70BD10B504462068C06820F0F1
:103AF000C0002168C8602068406900F08000D8B12B
:103B00002068406920F0800021684861206B50B136
:103B1000C348216B4863206BFDF76CFDA0B1206B9F
:103B2000416B884710E00020E084202084F83900B1
:103B30002046FFF7CBFF07E00020E084202084F838
:103B400039002046FFF7C2FF002010BD704770B556
:103B500005466C6A0020E085202084F83A00204663
:103B6000FFF7F4FF70BD10B504462068C06820F46C
:103B700090702168C8602068406920F001002168C9
:103B800048612068406900F04000D8B12068406971
:103B900020F0400021684861606B50B1A148616B22
:103BA0004863606BFDF726FDA0B1606B416B8847F1
:103BB00010E00020E085202084F83A002046FFF73E
:103BC000C5FF07E00020E085202084F83A00204669
:103BD000FFF7BCFF002010BD10B504462068C06888
:103BE00020F040002168C860202084F83900204679
:103BF000FFF7A1FC002010BD014691F839002128F3
:103C00002CD18868B0F5805F0FD10A6A1088C0F3A4
:103C100008000B685860086918B9086A801C0862B7
:103C200009E0086A401C086205E00B6A581C08623B
:103C300018780B685860C88C401E80B2C88458B988
:103C40000868C06820F080000B68D8600868C06809
:103C500040F040000B68D860002070470220FCE76D
:103C600070B505466C6A0020E085E0842046FFF7C9
:103C700017FC70BD70B5044694F83A0022284AD16A
:103C8000A068B0F5805F13D1A56A206940B92068AB
:103C90004068C0F308002880A06A801CA06219E078
:103CA00020684068C0B22880A06A401CA06211E071
:103CB000206938B920684068C1B2A26A501CA0626D
:103CC000117007E02068406800F07F01A26A501C74
:103CD000A0621170E08D401E80B2E085C8B92068F6
:103CE000C06820F020002168C8602068C06820F407
:103CF00080702168C8602068406920F00100216858
:103D00004861202084F83A002046FFF77FFC00201D
:103D100070BD0020FCE70220FAE72DE9F0470446D9
:103D2000206805682068C668206847694FF0000869
:103D3000C14605F00F08B8F1000F0AD105F02000C8
:103D400038B106F0200020B12046FFF793FFBDE810
:103D5000F087B8F1000F78D007F0010018B906F429
:103D60009070002871D005F0010030B106F4807029
:103D700018B1E06B40F00100E06305F0040030B1E1
:103D800007F0010018B1E06B40F00200E06305F0BD
:103D9000020030B107F0010018B1E06B40F0040000
:103DA000E06305F0080030B107F0010018B1E06BE6
:103DB00040F00800E063E06B68B305F0200028B134
:103DC00006F0200010B12046FFF754FF206840693C
:103DD000C0F38019E06B00F0080010B9B9F1000FD2
:103DE0002DD02046FFF75DFB2068406900F04000C1
:103DF00008B32068406920F0400021684861606B8A
:103E0000A8B10948616B4863606BFDF7F3FB10B123
:103E1000606B416B884717E0C93900087F3900089B
:103E2000CF3A00084F3B0008613C00080DE02046F7
:103E3000FFF736FB08E02046FFF732FB04E02046A0
:103E4000FFF72EFB0020E06381E705F0800030B132
:103E500006F0800018B12046FFF7CEFE77E705F0A8
:103E6000400030B106F0400018B12046FFF7B4FE24
:103E70006DE700BF6BE7014600BF91F838000128ED
:103E800001D102207047012081F8380000BF2420B2
:103E900081F839000868C06840F001000A68D06005
:103EA000202081F8390000BF002081F8380000BFD1
:103EB00000BFE7E7014600BF91F83800012801D1B3
:103EC00002207047012081F8380000BF242081F8CB
:103ED00039000868C06840F002000A68D0602020FD
:103EE00081F8390000BF002081F8380000BF00BF12
:103EF000E7E7014600BF91F83800012801D1022010
:103F00007047012081F8380000BF242081F8390073
:103F10000868C06820F002000A68D060202081F89C
:103F2000390000BF002081F8380000BF00BFE7E77C
:103F30000146002200BF91F83800012801D102207B
:103F40007047012081F8380000BF242081F8390033
:103F50000868C26822F00C0242F008020868C260D9
:103F6000202081F8390000BF002081F8380000BF10
:103F700000BFE5E70146002200BF91F838000128A4
:103F800001D102207047012081F8380000BF2420B1
:103F900081F839000868C26822F00C0242F004027D
:103FA0000868C260202081F8390000BF002081F835
:103FB000380000BF00BFE5E701460022002391F86A
:103FC000392091F83A3042EA030070470146C86B45
:103FD00070470000704770B504464E4800684FF4C3
:103FE0007A71B0FBF1F52846FEF7D0F900222146A0
:103FF000501EFEF755F9002070BD10B54648006808
:1040000040F01000444908600320FEF737F90F2004
:10401000FFF7E1FFFCF7CEF8002010BD704710B5A8
:104020004FF0FF303D49C86000200861401EC86065
:104030000020C860FFF7F2FF002010BD384800687C
:10404000401C37490860704735480068704731B5F3
:10405000FFF7FAFF0546009C601C00B1641C00BF1E
:10406000FFF7F2FF401BA042FAD338BD4FF0E0202B
:10407000006920F002004FF0E021086170474FF026
:10408000E020006940F002004FF0E0210861704735
:104090002448704724480068000C70472248006894
:1040A000C0F30B0070472048406840F001001E49F3
:1040B000486070471C48406820F001001A49486079
:1040C00070471948406840F002001749486070473F
:1040D0001548406820F002001349486070471248B4
:1040E000406840F004001049486070470E4840683E
:1040F00020F004000C49486070470C4909680160D1
:104100000A49091D09684160084908310968816048
:10411000704700000401002000200240001002400F
:104120000801002000010101002004E0E8F7FF1F62
:104130000648804706480047FEE7FEE7FEE7FEE741
:10414000FEE7FEE7FEE7FEE7FEE7FEE79D0D00085F
:1041500031010008704719480068704770B504467F
:1041600005F080FE054615480460284605F07EFEF1
:1041700070BD10B511480068401C1049086005F07A
:1041800073F80446E06D401EE065E06D18B9A06D5F
:10419000E06505F07EF904F08FFE10BD01460029B0
:1041A00002DA4FF0FF3007E064224A4302F2E732BE
:1041B0004FF47A7392FBF3F0704700000C0100207B
:1041C0000020704700207047002070470020704793
:1041D00010B5284C02E020688047241D2648844200
:1041E000F9D310BD10B5244C02E020688047241D8F
:1041F00022488442F9D310BD10B50446FFF7F2FF00
:10420000FBF7A0FF10BD1CB514200A214FF400637A
:104210000022CDE90010AFF21F0119A005F0D8F877
:10422000044624B9D422184918A002F0CBFE204637
:1042300005F059F81CBD10B505F014FEFCF74BF85D
:1042400002F0EDFD04F00DFF04F022F804F0EDFBA8
:10425000FFF7D9FF04F011FF00F05EFB04F034F823
:10426000002010BD10B505F0FDFDFFF7E4FF0020B4
:1042700010BD0000A4F50008B0F50008B8F500086E
:104280006D61696E000000008BE1000874696420B4
:10429000213D2052545F4E554C4C00002DE9F04119
:1042A000064604F0E1FF08B104F0CCF8082003F062
:1042B00023FE044624B98A22F649F7A002F082FEC2
:1042C000656810E0A5F10C0708223146384602F077
:1042D000C8FA38B904F0C8FF08B104F0C1F838468C
:1042E000BDE8F0812D68201D8542EBD104F0BCFFB4
:1042F00008B104F0B5F80020F2E770B504460D46A9
:10430000164614B94FF0FF3070BD2846FFF7C6FFC0
:1043100010B14FF0FF30F7E72A460821204603F09E
:10432000FDFDE6820020A076208300BFECE710B5FB
:10433000044624B96022DE49DEA002F043FE204696
:1043400003F0C5FE082804D06122D949DDA002F09F
:1043500039FE204603F0AAFE20B96222D449E8A023
:1043600002F030FE204603F007FE002010BD0020C2
:1043700070472DE9F04106460C464027E01C20F02E
:1043800003042744384602F061FF05462DB1402260
:104390000021284602F077F92E752846BDE8F08105
:1043A00010B5044624B9C822DF49C2A002F00AFEB3
:1043B000204603F08CFE082804D0C922DA49C1A0A7
:1043C00002F000FE204603F071FE20B1CA22D64959
:1043D000D6A002F0F7FD204603F0CEFD204603F004
:1043E0003AF810BD70B50446002524B9DF22DC4937
:1043F000B0A002F0E7FD606A90B1A07D00F010006F
:1044000070B92046616A884705462DB12A46214683
:10441000D4A002F0D4FC03E0E08A40F01000E08277
:10442000284670BD70B504460E4600252CB94FF4E1
:104430008172DA499FA002F0C5FD204603F047FED5
:10444000082805D040F20312D4499EA002F0BAFD1C
:10445000A07D00F0100088B9606A58B12046616AFA
:104460008847054635B12A462146BEA002F0A7FC82
:10447000284670BDE08A40F01000E082A07D00F088
:10448000080030B1207E00F0080010B16FF0060087
:10449000EFE7A06A28B131462046A26A9047054658
:1044A00003E040F60F70304020830DB1A81D70B9B5
:1044B000208B40F008002083A07E401CA076A07EC8
:1044C00028B940F23112B549B5A002F07BFD28466B
:1044D000CFE770B5044600252CB940F24312B54928
:1044E00074A002F06FFD204603F0F1FD082805D00E
:1044F0004FF4A272AF4973A002F064FDA07E10B920
:104500004FF0FF3070BDA07E401EA076A07E08B1A7
:104510000020F7E7E06A18B12046E16A88470546BF
:104520000DB1A81D08B9002020832846EAE72DE92F
:10453000F04104460D4616461F462CB940F26D1256
:104540009D495CA002F03EFD204603F0C0FD082816
:1045500005D04FF4B77298495AA002F033FDA07EFF
:1045600030B94FF0FF3002F06DF80020BDE8F08167
:10457000206B38B13B46324629462046D4F830C03D
:10458000E047F3E76FF0050002F05CF80020EDE78C
:104590002DE9F04104460D4616461F462CB94FF44E
:1045A000CA72864943A002F00DFD204603F08FFD3C
:1045B000082805D040F29512804942A002F002FD81
:1045C000A07E30B94FF0FF3002F03CF80020BDE88B
:1045D000F081606B38B13B46324629462046D4F81C
:1045E00034C0E047F3E76FF0050002F02BF800203D
:1045F000EDE770B504460D4616462CB940F2B512EB
:104600006F492CA002F0DEFC204603F060FD082874
:1046100005D04FF4DB726A492AA002F0D3FCA06BEC
:1046200028B1324629462046A36B984770BD6FF0EB
:104630000500FBE770B504460D462CB940F2CF12D9
:1046400060491CA002F0BEFC204603F040FD082893
:1046500005D04FF4E8725B491AA002F0B3FCE561A3
:10466000002070BD70B504460D462CB940F2E5122D
:10467000554910A002F0A6FC204603F028FD0828AA
:1046800005D04FF4F37250490EA002F09BFC256256
:10469000002070BDB4E10008696E666F726D6174D0
:1046A000696F6E20213D2052545F4E554C4C0000E6
:1046B0009FE1000864657620213D2052545F4E55ED
:1046C0004C4C000072745F6F626A6563745F67656B
:1046D000745F7479706528266465762D3E7061720A
:1046E000656E7429203D3D2052545F4F626A6563B8
:1046F000745F436C6173735F446576696365000042
:1047000072745F6F626A6563745F69735F737973F4
:1047100074656D6F626A65637428266465762D3EE4
:10472000706172656E742900C3E1000872745F6F76
:10473000626A6563745F69735F73797374656D6FC3
:10474000626A65637428266465762D3E70617265C1
:104750006E7429203D3D2052545F46414C53450024
:10476000D5E10008546F20696E697469616C697ADB
:1047700065206465766963653A2573206661696CB6
:1047800065642E20546865206572726F7220636FB5
:1047900064652069732025640A000000E4E10008D4
:1047A0006465762D3E7265665F636F756E74202159
:1047B0003D203000F3E1000803E2000812E20008A7
:1047C00022E2000834E200084EE200082DE9F04140
:1047D00005466FF0020705F045FB0646002409E098
:1047E0005C4850F8240020B95A4840F8245000276B
:1047F00002E0641C042CF3D300BF304605F036FB06
:104800003846BDE8F0812DE9F04105466FF0050717
:1048100005F028FB064600240BE04E4850F8240023
:10482000A84205D100204B4941F82400002702E0AE
:10483000641C042CF1D300BF304605F017FB38464A
:10484000BDE8F08170B550E000BF05F00BFB0646F7
:1048500001F0DEFE40B1404940A002F0B0FAA722CC
:104860003D4948A002F0AEFB304605F0FFFA00BF1C
:1048700005F0F8FA054600F064F840B342480068D5
:10488000A0F1140404F11400D0E900215160D0E932
:10489000001211604060006000BF03F0D3FDD4F847
:1048A0008C0018B12046D4F88C108847204604F0BC
:1048B00025F8204603F0FAFB012805D103F0D0FDCE
:1048C000284605F0D3FA70BD03F0CAFD03E0284680
:1048D00005F0CCFAF7E7284605F0C8FAA06A02F01E
:1048E000BAFD204603F0B6FB00BF00F02AF800280E
:1048F000AAD100BFE7E70EE0002408E0154850F811
:10490000240018B1134951F824008047641C042C7A
:10491000F4D3FFF797FFEFE71FB520201F21C20058
:104920001A4BCDE90032CDE902100023184A19A133
:104930001A4804F074FC194804F0D5FC1FBD174850
:10494000704711490868884201D001207047002053
:10495000FCE70000E404002068E2000846756E638E
:1049600074696F6E5B25735D207368616C6C206E7B
:104970006F74206265207573656420696E204953E9
:10498000520A00003000000014020020E40300205E
:10499000F74800087469646C65000000500300204B
:1049A0004268116042684A604160086070472DE9C2
:1049B000F04105460C469046204604F04DFEB8F105
:1049C000000F03D0B8F1010F23D105E004F1140169
:1049D0002846FFF7E5FF1CE02E680FE0A6F114075C
:1049E00094F8350097F83510884206DA04F114017E
:1049F00007F11400FFF7D4FF02E03668AE42EDD1B4
:104A000000BFAE4204D104F114012846FFF7C8FFED
:104A100000BF00BF0020BDE8F08170B505460EE084
:104A200005F020FA06462868A0F114044FF0FF3084
:104A30002063204604F01BFC304605F017FA284698
:104A400001F089FD0028EBD0002070BD2DE9F04178
:104A500004460D4616461F4624B9D822FD49FEA03D
:104A600002F0B0FA2A460121204603F057FA204608
:104A700001F079FDA68367720020BDE8F08110B5D2
:104A8000044624B9F622F849F3A002F09BFA204626
:104A900003F01DFB012804D0F722F349F34802F08C
:104AA00091FA204603F002FB20B9F822EE49F0A06B
:104AB00002F088FA04F11400FFF7AFFF204603F07C
:104AC0005BFA002010BD2DE9F04105460E46174661
:104AD00000BF05F0C7F9804601F09AFD48B1F049E2
:104AE000F0A002F06CF94FF48A72ED49F7A002F0E1
:104AF00069FA404605F0BAF900BF2946012003F0E3
:104B00005AFA044614B92046BDE8F081204601F067
:104B10002AFDA68367722046F6E770B5044600BFFB
:104B200005F0A0F9054601F073FD48B1E849DDA0A4
:104B300002F045F940F23312E549E4A002F042FAEE
:104B4000284605F093F900BF2CB94FF49B72E04959
:104B5000C1A002F037FA204603F0B9FA012805D0C7
:104B600040F23712DA49C14802F02CFA204603F02D
:104B70009DFA28B14FF49C72D549D6A002F022FAD2
:104B800004F11400FFF749FF204603F063FA002008
:104B900070BD2DE9F34105462DB94FF4AA72DC49E9
:104BA000ADA002F00FFA284603F091FA012805D0D3
:104BB00040F25512D649AD4802F004FA00BFD5487C
:104BC000006818B12846D3490968884700BF05F036
:104BD00049F9064600BF00BFA88B002806DDA88B58
:104BE000401EA883304605F041F957E0019830B9DE
:104BF000304605F03BF96FF00100BDE8FC8100BFD5
:104C000005F030F9074604F02FFB48B9C049C2A0AF
:104C100002F0D5F840F27512BD49ACA002F0D2F90D
:104C200000BF05F01FF9804601F0F2FC48B1B84919
:104C30009CA002F0C4F840F27512B549A3A002F09E
:104C4000C1F9404605F012F900BF384605F00EF9EB
:104C500000BF04F009FB04460020206300BF00BF32
:104C60006A7A214605F11400FFF7A1FE0198002899
:104C70000BDD00BF00BF01AA002104F1600004F0B9
:104C8000EAF804F1600004F016F8304605F0EEF89A
:104C900003F02CFB206B08B1206BAEE700BFAC48E3
:104CA000006818B12846AA490968884700BF002053
:104CB000A3E710B5044600212046FFF76AFF10BDA8
:104CC00070B504462CB940F2C112A24962A002F0AC
:104CD00079F9204603F0FBF9012805D04FF4E17281
:104CE0009C49624802F06EF900BF9B48006818B109
:104CF000204699490968884700BF002505F0B2F8A9
:104D0000064600BF00BF04F1140001F024FC28B9DE
:104D100004F1140001F02FFC012502E0A08B401CDF
:104D2000A083304605F0A2F8012D01D103F0DEFA90
:104D3000002070BD2DE9F04104460E4615462CB901
:104D40004FF4F972854944A002F03CF9204603F083
:104D5000BEF9012805D040F2F3128049434802F021
:104D600031F9012E10D12F4605F07CF8804604F170
:104D70001400FFF752FEA783404605F077F803F0D2
:104D8000B5FA0020BDE8F0814FF0FF30FAE770B5CA
:104D900004460D4616462CB940F21F22704971A0F8
:104DA00002F010F92A460221204603F0B7F8204607
:104DB00001F0D9FB0120A08300202062FF20A07712
:104DC0000020E077667270BD10B504462CB940F241
:104DD0003F22694963A002F0F5F8204603F077F915
:104DE000022805D04FF410726349644802F0EAF8D3
:104DF000204603F05BF928B940F241225E4960A0E9
:104E000002F0E0F804F11400FFF707FE204603F07B
:104E1000B3F8002010BD2DE9F04105460E4600BF55
:104E200005F020F8074601F0F3FB48B161491DA0E9
:104E300001F0C5FF4FF417725E4924A002F0C2F8DA
:104E4000384605F013F800BF2946022003F0B3F8F6
:104E50000446B1E07EE2000873656D20213D2052DA
:104E6000545F4E554C4C00008AE200088CEA000862
:104E700072745F6F626A6563745F69735F7379737D
:104E800074656D6F626A656374282673656D2D3E67
:104E9000706172656E742E706172656E74290000A7
:104EA00098E2000846756E6374696F6E5B25735DEA
:104EB000207368616C6C206E6F742062652075735E
:104EC000656420696E204953520A000030000000DA
:104ED000A6E2000872745F6F626A6563745F69734B
:104EE0005F73797374656D6F626A65637428267386
:104EF000656D2D3E706172656E742E706172656EA7
:104F00007429203D3D2052545F46414C53450000DA
:104F1000B4E20008F801002046756E6374696F6E94
:104F20005B25735D207368616C6C206E6F7420620A
:104F3000652075736564206265666F7265207363B2
:104F4000686564756C65722073746172740A000020
:104F5000FC010020C0E2000800020020CFE20008AF
:104F6000DEE200086D7574657820213D2052545FA3
:104F70004E554C4C00000000ECE2000860EB0008CD
:104F800072745F6F626A6563745F69735F7379736C
:104F900074656D6F626A65637428266D75746578D3
:104FA0002D3E706172656E742E706172656E74292B
:104FB00000000000FCE2000814B92046BDE8F081C2
:104FC000204601F0D0FA0120A08300202062FF20BB
:104FD000A0770020E07766722046EFE770B50446C0
:104FE00000BF04F03FFF054601F012FB58B1FD4938
:104FF000AFF2501001F0E3FE40F27D22F949AFF22A
:10500000341001F0DFFF284604F030FF00BF34B950
:105010004FF42072F349AFF2B40001F0D3FF204601
:1050200003F055F8022805D040F28122ED49EE4800
:1050300001F0C8FF204603F039F828B140F282227F
:10504000E849EAA001F0BEFF04F11400FFF7E5FC17
:10505000204602F0FFFF002070BD2DE9F341044619
:1050600000BF04F0FFFE074604F0FEF858B9EF4910
:10507000AFF25C1001F0A3FE40F29E22EB49AFF2CA
:10508000B41001F09FFF00BF04F0ECFE804601F079
:10509000BFFA58B1E549AFF2F41001F090FE40F2CA
:1050A0009E22E249AFF2DC1001F08CFF404604F092
:1050B000DDFE00BF384604F0D9FE00BF34B940F22F
:1050C000A122DA49AFF2641001F07CFF204602F021
:1050D000FEFF022805D040F2A222D449C24801F0C6
:1050E00071FF04F0C1F8054604F0BCFE064600BF9F
:1050F000CF48006818B12046CD490968884700BFED
:1051000000BF00BF00202863206AA84203D1E07FCF
:10511000401CE0774EE000BFA08B00280ADDA08B8A
:10512000401EA083256295F83500A077E07F401CE3
:10513000E0773FE0019848B96FF0010028633046FE
:1051400004F094FE6FF00100BDE8FC8100BF00BFD9
:1051500095F83500216A91F83510884205DA05F195
:1051600035020221206A04F0F9FA627A294604F134
:105170001400FFF71CFC019800280BDD00BF00BFE6
:1051800001AA002105F1600003F065FE05F1600051
:1051900003F091FD304604F069FE03F0A7F8286B98
:1051A00028B1286B093000B9B6E7286BCCE704F0CA
:1051B00059FE0646304604F059FE00BF9D4800687F
:1051C00018B120469B490968884700BF0020BBE70B
:1051D0002DE9F047044634B940F227329649AFF240
:1051E0007C2001F0EFFE204602F071FF022805D07E
:1051F0004FF44A7290497C4801F0E4FE002600BF5B
:1052000004F030FE804604F02FF858B98A49AFF216
:10521000F82001F0D4FD40F22D328749AFF254302E
:1052200001F0D0FE00BF04F01DFE814601F0F0F950
:1052300058B18149AFF2943001F0C1FD40F22D32F6
:105240007D49AFF2783001F0BDFE484604F00EFE15
:1052500000BF404604F00AFE00BF04F005F8054612
:1052600004F000FE074600BF00BF00BF734800689F
:1052700018B1204671490968884700BF206AA842D2
:1052800009D04FF0FF302863384604F0EFFD4FF0AF
:10529000FF30BDE8F087E07F401EE077E07F08BB8D
:1052A000A07F216A91F83510884205D004F11E02D2
:1052B0000221206A04F052FA04F1140001F04BF9C3
:1052C00088B96069A0F1140500BF00BF256295F898
:1052D0003500A077E07F401CE07704F1140001F076
:1052E0004AF9012606E0A08B401CA0830020206222
:1052F000FF20A077384604F0B9FD012E01D102F05D
:10530000F5FF0020C5E770B504460D46164634B9D2
:1053100040F28A324A49AFF2B43001F053FE2046DF
:1053200002F0D5FE022805D040F28B3244492E48C7
:1053300001F048FE4FF0FF3070BD70B504460D46D9
:1053400016462CB94FF468723E493FA001F03AFE70
:105350002A460321204602F0E1FD6672204601F054
:1053600002F90020E06170BD10B504462CB94FF47D
:105370006F723A4934A001F025FE204602F0A7FEE4
:10538000032805D040F2BD323449354801F01AFEF9
:10539000204602F08BFE28B940F2BE322F4931A0E0
:1053A00001F010FE04F11400FFF737FB204602F075
:1053B000E3FD002010BD2DE9F04105460E4600BF7B
:1053C00004F050FD074601F023F950B13249AFF225
:1053D0002C5001F0F4FC40F2D7322F49AFF21450B8
:1053E0005CE05DE00CE3000860EB000872745F6F46
:1053F000626A6563745F69735F73797374656D6FF7
:10540000626A65637428266D757465782D3E7061D7
:1054100072656E742E706172656E7429203D3D2038
:1054200052545F46414C5345000000001CE3000805
:10543000F8010020FC0100202AE3000800020020FF
:105440003BE300084CE300086576656E7420213D5F
:105450002052545F4E554C4C000000005AE30008A7
:105460001CEB000872745F6F626A6563745F697336
:105470005F73797374656D6F626A656374282665FE
:1054800076656E742D3E706172656E742E706172F9
:10549000656E7429000000006AE3000801F092FDC7
:1054A000384604F0E3FC00BF2946032002F083FDE8
:1054B000044614B92046BDE8F0816672204601F02A
:1054C00052F80020E0612046F5E770B5044634B993
:1054D00040F2F532F449AFF2900001F073FD20463E
:1054E00002F0F5FD032805D040F2F632EE49EF4810
:1054F00001F068FD204602F0D9FD28B140F2F732F4
:10550000E949EBA001F05EFD00BF04F0ABFC0546ED
:1055100001F07EF858B1E449AFF2786001F04FFC39
:1055200040F2F932E049AFF25C6001F04BFD2846F1
:1055300004F09CFC00BF04F11400FFF76EFA204653
:1055400002F088FD002070BD2DE9F04704460F46AB
:1055500034B94FF48362E649AFF2141001F032FD22
:10556000204602F0B4FD032805D040F21942E0497C
:10557000CE4801F027FD1FB94FF0FF30BDE8F0879E
:105580004FF0000804F06EFC8246E0693843E061A9
:1055900000BFD848006818B12046D6490968884736
:1055A00000BF04F1140000F0D6FFC0BB666932E012
:1055B000A6F114054FF0FF3995F8400000F0010006
:1055C00040B1E86BE1690840E96B884211D14FF0C6
:1055D00000090EE095F8400000F0020048B1E86BC9
:1055E000E169084028B1E86BE1690840E8634FF0E1
:1055F00000093668B9F1000F0DD195F8400000F0B0
:10560000040018B1E069E96B8843E061284603F0C3
:105610002EFE4FF0010804F114008642C8D1504616
:1056200004F024FCB8F1010F01D102F05FFE00206C
:10563000A4E72DE9FF4F81B005460E461746DDF879
:10564000388000BF04F00EFC009003F00DFE58B946
:10565000A949AFF23C7001F0B2FB40F27B42A6498F
:10566000AFF2987001F0AEFC00BF04F0FBFB834684
:1056700000F0CEFF58B1A049AFF2D87001F09FFB07
:1056800040F27B429C49AFF2BC7001F09BFC584653
:1056900004F0ECFB00BF009804F0E8FB00BF35B954
:1056A00040F27E429449AFF2602001F08BFC284624
:1056B00002F00DFD032805D040F27F428E497B4861
:1056C00001F080FC26B94FF0FF3005B0BDE8F08F47
:1056D0004FF0FF3903F0C8FD04460021216300BFED
:1056E0008648006818B1284684490968884700BF81
:1056F00004F0B8FB824607F0010030B1E8693040A1
:10570000B04212D14FF000090FE007F0020028B1BB
:10571000E869304048B14FF0000906E040F29E428F
:105720007549AFF6580001F04DFCB9F1000F0DD1ED
:10573000B8F1000F03D0E8693040C8F8000007F066
:10574000040088B3E869B043E8612DE0049818B913
:105750006FF00100206327E0E66384F840706A7A06
:10576000214605F11400FFF722F90498002809DD0D
:1057700004AA002104F1600003F06DFB04F1600055
:1057800003F099FA504604F071FB02F0AFFD206B74
:1057900008B1206B99E704F065FB8246B8F1000F71
:1057A00002D0E06BC8F80000504604F05FFB00BF79
:1057B0005348006818B1284651490968884700BF16
:1057C000206B82E72DE9F04104460D46174634B9B7
:1057D0004FF49E624B49AFF2903001F0F3FB20464C
:1057E00002F075FC032805D040F2F14245492F48EC
:1057F00001F0E8FB012D10D104F034FB064604F162
:105800001400FFF70AF90020E061304604F02EFB97
:1058100002F06CFD0020BDE8F0814FF0FF30FAE7A8
:105820002DE9F04104460D4616461F46DDF8188066
:105830002CB940F21E52344934A001F0C3FB2A4671
:105840000421204602F06AFB84F80980204600F01B
:105850008AFEE661278400206084A084E08404F14D
:10586000280000F075FE0020BDE8F08110B5044668
:105870002CB940F24152294924A001F0A3FB204653
:1058800002F025FC042805D040F242522349244866
:1058900001F098FB204602F009FC18B940F243528F
:1058A0001E493FE041E000007AE300081CEB0008DD
:1058B00072745F6F626A6563745F69735F73797333
:1058C00074656D6F626A65637428266576656E74AB
:1058D0002D3E706172656E742E706172656E7429F2
:1058E000203D3D2052545F46414C5345000000008E
:1058F0008AE300080002002098E30008F801002075
:10590000FC010020A6E30008B7E300086D62202137
:105910003D2052545F4E554C4C000000C2E300083D
:10592000A4EB0008FAA001F04DFB04F11400FFF70E
:1059300074F804F12800FFF770F8204602F01CFB11
:10594000002010BD2DE9F04105460E46174600BF68
:1059500004F088FA804600F05BFE58B1F849AFF6D3
:10596000BC2001F02CFA40F25F52F549AFF6A420BA
:1059700001F028FB404604F079FA00BF29460420D4
:1059800002F019FB044614B92046BDE8F0816772A5
:10599000204600F0E8FD2684218C880001F056FCAA
:1059A000E061E06920B9204602F054FB0020ECE7FA
:1059B00000206084A084E08404F1280000F0C8FD89
:1059C0002046E2E770B5044600BF04F04BFA0546F6
:1059D00000F01EFE58B1DB49AFF6383001F0EFF9A8
:1059E00040F28A52D749AFF61C3001F0EBFA284654
:1059F00004F03CFA00BF34B940F28D52D149AFF205
:105A0000F40001F0DFFA204602F061FB042805D023
:105A100040F28E52CB49CC4801F0D4FA204602F035
:105A200045FB28B140F28F52C649C8A001F0CAFA1E
:105A300004F11400FEF7F1FF04F12800FEF7EDFF7A
:105A4000E06901F008FD204602F004FB002070BD73
:105A50002DE9F74F04460F4634B940F2B552CA4912
:105A6000AFF2581001F0AEFA204602F030FB0428E5
:105A700005D040F2B652C449B34801F0A3FA00265B
:105A800003F0F2FB054600BFC048006818B120468D
:105A9000BE490968884700BF04F0E4F98046608C7D
:105AA000218C884208D1029830B9404604F0DEF9D2
:105AB0006FF00200BDE8FE8F69E0002028630298C5
:105AC00028B9404604F0D2F96FF00200F2E700BFB7
:105AD00004F0C8F9814603F0C7FB58B9AA49AFF6EC
